{
  "_format": "hh-sol-artifact-1",
  "contractName": "MyToken4",
  "sourceName": "contracts/Part 1/Token4.sol",
  "abi": [
    {
      "inputs": [],
      "stateMutability": "nonpayable",
      "type": "constructor"
    },
    {
      "anonymous": false,
      "inputs": [
        {
          "indexed": true,
          "internalType": "address",
          "name": "from",
          "type": "address"
        },
        {
          "indexed": true,
          "internalType": "address",
          "name": "to",
          "type": "address"
        },
        {
          "indexed": false,
          "internalType": "uint256",
          "name": "amount",
          "type": "uint256"
        }
      ],
      "name": "Allowance",
      "type": "event"
    },
    {
      "anonymous": false,
      "inputs": [
        {
          "indexed": true,
          "internalType": "address",
          "name": "recipient",
          "type": "address"
        },
        {
          "indexed": true,
          "internalType": "address",
          "name": "to",
          "type": "address"
        },
        {
          "indexed": false,
          "internalType": "uint256",
          "name": "amount",
          "type": "uint256"
        }
      ],
      "name": "Transfer",
      "type": "event"
    },
    {
      "inputs": [
        {
          "internalType": "address",
          "name": "_owner",
          "type": "address"
        },
        {
          "internalType": "address",
          "name": "_spender",
          "type": "address"
        }
      ],
      "name": "allowance",
      "outputs": [
        {
          "internalType": "uint256",
          "name": "",
          "type": "uint256"
        }
      ],
      "stateMutability": "view",
      "type": "function"
    },
    {
      "inputs": [
        {
          "internalType": "address",
          "name": "_spender",
          "type": "address"
        },
        {
          "internalType": "uint256",
          "name": "_value",
          "type": "uint256"
        }
      ],
      "name": "approval",
      "outputs": [
        {
          "internalType": "bool",
          "name": "success",
          "type": "bool"
        }
      ],
      "stateMutability": "nonpayable",
      "type": "function"
    },
    {
      "inputs": [
        {
          "internalType": "address",
          "name": "user",
          "type": "address"
        }
      ],
      "name": "balanceOf",
      "outputs": [
        {
          "internalType": "uint256",
          "name": "",
          "type": "uint256"
        }
      ],
      "stateMutability": "view",
      "type": "function"
    },
    {
      "inputs": [],
      "name": "decimals",
      "outputs": [
        {
          "internalType": "uint256",
          "name": "",
          "type": "uint256"
        }
      ],
      "stateMutability": "view",
      "type": "function"
    },
    {
      "inputs": [],
      "name": "name",
      "outputs": [
        {
          "internalType": "string",
          "name": "",
          "type": "string"
        }
      ],
      "stateMutability": "view",
      "type": "function"
    },
    {
      "inputs": [],
      "name": "symbol",
      "outputs": [
        {
          "internalType": "string",
          "name": "",
          "type": "string"
        }
      ],
      "stateMutability": "view",
      "type": "function"
    },
    {
      "inputs": [],
      "name": "totalSupply",
      "outputs": [
        {
          "internalType": "uint256",
          "name": "",
          "type": "uint256"
        }
      ],
      "stateMutability": "view",
      "type": "function"
    },
    {
      "inputs": [
        {
          "internalType": "address",
          "name": "reciever",
          "type": "address"
        },
        {
          "internalType": "uint256",
          "name": "amount",
          "type": "uint256"
        }
      ],
      "name": "transfer",
      "outputs": [
        {
          "internalType": "bool",
          "name": "",
          "type": "bool"
        }
      ],
      "stateMutability": "nonpayable",
      "type": "function"
    },
    {
      "inputs": [
        {
          "internalType": "address",
          "name": "_from",
          "type": "address"
        },
        {
          "internalType": "address",
          "name": "_to",
          "type": "address"
        },
        {
          "internalType": "uint256",
          "name": "_value",
          "type": "uint256"
        }
      ],
      "name": "transferFrom",
      "outputs": [
        {
          "internalType": "bool",
          "name": "success",
          "type": "bool"
        }
      ],
      "stateMutability": "nonpayable",
      "type": "function"
    }
  ],
  "bytecode": "0x60a060405268056bc75e2d6310000060015534801561001d57600080fd5b50336000806101000a81548173ffffffffffffffffffffffffffffffffffffffff021916908373ffffffffffffffffffffffffffffffffffffffff160217905550600154600260003373ffffffffffffffffffffffffffffffffffffffff1673ffffffffffffffffffffffffffffffffffffffff16815260200190815260200160002081905550601260808181525050608051610d986100c860003960006104cb0152610d986000f3fe608060405234801561001057600080fd5b50600436106100935760003560e01c806370a082311161006657806370a082311461012257806375247a581461015257806395d89b4114610182578063a9059cbb146101a0578063dd62ed3e146101d057610093565b806306fdde031461009857806318160ddd146100b657806323b872dd146100d4578063313ce56714610104575b600080fd5b6100a0610200565b6040516100ad9190610990565b60405180910390f35b6100be610239565b6040516100cb91906109cb565b60405180910390f35b6100ee60048036038101906100e99190610a75565b61023f565b6040516100fb9190610ae3565b60405180910390f35b61010c6104c9565b60405161011991906109cb565b60405180910390f35b61013c60048036038101906101379190610afe565b6104ed565b60405161014991906109cb565b60405180910390f35b61016c60048036038101906101679190610b2b565b610536565b6040516101799190610ae3565b60405180910390f35b61018a610628565b6040516101979190610990565b60405180910390f35b6101ba60048036038101906101b59190610b2b565b610661565b6040516101c79190610ae3565b60405180910390f35b6101ea60048036038101906101e59190610b6b565b610870565b6040516101f791906109cb565b60405180910390f35b6040518060400160405280600a81526020017f496d72616e204b68616e0000000000000000000000000000000000000000000081525081565b60015481565b600080600360008673ffffffffffffffffffffffffffffffffffffffff1673ffffffffffffffffffffffffffffffffffffffff16815260200190815260200160002060003373ffffffffffffffffffffffffffffffffffffffff1673ffffffffffffffffffffffffffffffffffffffff16815260200190815260200160002054905082600260008773ffffffffffffffffffffffffffffffffffffffff1673ffffffffffffffffffffffffffffffffffffffff16815260200190815260200160002054101580156103105750828110155b61031957600080fd5b82600260008673ffffffffffffffffffffffffffffffffffffffff1673ffffffffffffffffffffffffffffffffffffffff16815260200190815260200160002060008282546103689190610bda565b9250508190555082600260008773ffffffffffffffffffffffffffffffffffffffff1673ffffffffffffffffffffffffffffffffffffffff16815260200190815260200160002060008282546103be9190610c30565b9250508190555082600360008773ffffffffffffffffffffffffffffffffffffffff1673ffffffffffffffffffffffffffffffffffffffff16815260200190815260200160002060003373ffffffffffffffffffffffffffffffffffffffff1673ffffffffffffffffffffffffffffffffffffffff16815260200190815260200160002060008282546104519190610c30565b925050819055508373ffffffffffffffffffffffffffffffffffffffff168573ffffffffffffffffffffffffffffffffffffffff167fddf252ad1be2c89b69c2b068fc378daa952ba7f163c4a11628f55a4df523b3ef856040516104b591906109cb565b60405180910390a360019150509392505050565b7f000000000000000000000000000000000000000000000000000000000000000081565b6000600260008373ffffffffffffffffffffffffffffffffffffffff1673ffffffffffffffffffffffffffffffffffffffff168152602001908152602001600020549050919050565b600081600360003373ffffffffffffffffffffffffffffffffffffffff1673ffffffffffffffffffffffffffffffffffffffff16815260200190815260200160002060008573ffffffffffffffffffffffffffffffffffffffff1673ffffffffffffffffffffffffffffffffffffffff168152602001908152602001600020819055508273ffffffffffffffffffffffffffffffffffffffff163373ffffffffffffffffffffffffffffffffffffffff167ff0c939eb6a826391911442cba6d5a67238ac3d6ef13e3398f5def320a9629c508460405161061691906109cb565b60405180910390a36001905092915050565b6040518060400160405280600281526020017f494b00000000000000000000000000000000000000000000000000000000000081525081565b600081600260003373ffffffffffffffffffffffffffffffffffffffff1673ffffffffffffffffffffffffffffffffffffffff1681526020019081526020016000205410156106e5576040517f08c379a00000000000000000000000000000000000000000000000000000000081526004016106dc90610cd6565b60405180910390fd5b600073ffffffffffffffffffffffffffffffffffffffff168373ffffffffffffffffffffffffffffffffffffffff161415610755576040517f08c379a000000000000000000000000000000000000000000000000000000000815260040161074c90610d42565b60405180910390fd5b81600260003373ffffffffffffffffffffffffffffffffffffffff1673ffffffffffffffffffffffffffffffffffffffff16815260200190815260200160002060008282546107a49190610c30565b9250508190555081600260008573ffffffffffffffffffffffffffffffffffffffff1673ffffffffffffffffffffffffffffffffffffffff16815260200190815260200160002060008282546107fa9190610bda565b925050819055508273ffffffffffffffffffffffffffffffffffffffff163373ffffffffffffffffffffffffffffffffffffffff167fddf252ad1be2c89b69c2b068fc378daa952ba7f163c4a11628f55a4df523b3ef8460405161085e91906109cb565b60405180910390a36001905092915050565b6000600360008473ffffffffffffffffffffffffffffffffffffffff1673ffffffffffffffffffffffffffffffffffffffff16815260200190815260200160002060008373ffffffffffffffffffffffffffffffffffffffff1673ffffffffffffffffffffffffffffffffffffffff16815260200190815260200160002054905092915050565b600081519050919050565b600082825260208201905092915050565b60005b83811015610931578082015181840152602081019050610916565b83811115610940576000848401525b50505050565b6000601f19601f8301169050919050565b6000610962826108f7565b61096c8185610902565b935061097c818560208601610913565b61098581610946565b840191505092915050565b600060208201905081810360008301526109aa8184610957565b905092915050565b6000819050919050565b6109c5816109b2565b82525050565b60006020820190506109e060008301846109bc565b92915050565b600080fd5b600073ffffffffffffffffffffffffffffffffffffffff82169050919050565b6000610a16826109eb565b9050919050565b610a2681610a0b565b8114610a3157600080fd5b50565b600081359050610a4381610a1d565b92915050565b610a52816109b2565b8114610a5d57600080fd5b50565b600081359050610a6f81610a49565b92915050565b600080600060608486031215610a8e57610a8d6109e6565b5b6000610a9c86828701610a34565b9350506020610aad86828701610a34565b9250506040610abe86828701610a60565b9150509250925092565b60008115159050919050565b610add81610ac8565b82525050565b6000602082019050610af86000830184610ad4565b92915050565b600060208284031215610b1457610b136109e6565b5b6000610b2284828501610a34565b91505092915050565b60008060408385031215610b4257610b416109e6565b5b6000610b5085828601610a34565b9250506020610b6185828601610a60565b9150509250929050565b60008060408385031215610b8257610b816109e6565b5b6000610b9085828601610a34565b9250506020610ba185828601610a34565b9150509250929050565b7f4e487b7100000000000000000000000000000000000000000000000000000000600052601160045260246000fd5b6000610be5826109b2565b9150610bf0836109b2565b9250827fffffffffffffffffffffffffffffffffffffffffffffffffffffffffffffffff03821115610c2557610c24610bab565b5b828201905092915050565b6000610c3b826109b2565b9150610c46836109b2565b925082821015610c5957610c58610bab565b5b828203905092915050565b7f596f7520646f6e74206861766520656e6f75676820746f6b656e7320746f207460008201527f72616e7366657200000000000000000000000000000000000000000000000000602082015250565b6000610cc0602783610902565b9150610ccb82610c64565b604082019050919050565b60006020820190508181036000830152610cef81610cb3565b9050919050565b7f54686973206164647265737320646f6573206e6f742065786973740000000000600082015250565b6000610d2c601b83610902565b9150610d3782610cf6565b602082019050919050565b60006020820190508181036000830152610d5b81610d1f565b905091905056fea2646970667358221220b74d70588820b3fe7cdc0c2ffe17c5e84301a3158fa59c5a6091ecfaed69b0d864736f6c63430008080033",
  "linkReferences": {},
  "deployedLinkReferences": {}
}